{
  "contractName": "Numbers",
  "abi": [
    {
      "constant": true,
      "inputs": [],
      "name": "hostPlayerAddr",
      "outputs": [
        {
          "name": "",
          "type": "address"
        }
      ],
      "payable": false,
      "stateMutability": "view",
      "type": "function"
    },
    {
      "constant": true,
      "inputs": [],
      "name": "gameCost",
      "outputs": [
        {
          "name": "",
          "type": "uint256"
        }
      ],
      "payable": false,
      "stateMutability": "view",
      "type": "function"
    },
    {
      "inputs": [],
      "payable": true,
      "stateMutability": "payable",
      "type": "constructor"
    },
    {
      "anonymous": false,
      "inputs": [
        {
          "indexed": false,
          "name": "player",
          "type": "address"
        }
      ],
      "name": "PlayerJoined",
      "type": "event"
    },
    {
      "anonymous": false,
      "inputs": [
        {
          "indexed": false,
          "name": "player",
          "type": "address"
        }
      ],
      "name": "PlayerPlayedHand",
      "type": "event"
    },
    {
      "anonymous": false,
      "inputs": [
        {
          "indexed": false,
          "name": "winner",
          "type": "address"
        },
        {
          "indexed": false,
          "name": "hostWins",
          "type": "uint8"
        },
        {
          "indexed": false,
          "name": "guestWins",
          "type": "uint8"
        },
        {
          "indexed": false,
          "name": "handsCompleted",
          "type": "uint256"
        }
      ],
      "name": "GameOverWithWin",
      "type": "event"
    },
    {
      "anonymous": false,
      "inputs": [
        {
          "indexed": false,
          "name": "hostWins",
          "type": "uint8"
        },
        {
          "indexed": false,
          "name": "guestWins",
          "type": "uint8"
        },
        {
          "indexed": false,
          "name": "handsCompleted",
          "type": "uint256"
        }
      ],
      "name": "GameOverWithDraw",
      "type": "event"
    },
    {
      "anonymous": false,
      "inputs": [
        {
          "indexed": false,
          "name": "winner",
          "type": "address"
        },
        {
          "indexed": false,
          "name": "hostHand",
          "type": "uint8"
        },
        {
          "indexed": false,
          "name": "guestHand",
          "type": "uint8"
        },
        {
          "indexed": false,
          "name": "hostWins",
          "type": "uint8"
        },
        {
          "indexed": false,
          "name": "guestWins",
          "type": "uint8"
        },
        {
          "indexed": false,
          "name": "handsCompleted",
          "type": "uint256"
        }
      ],
      "name": "HandOverWithWin",
      "type": "event"
    },
    {
      "anonymous": false,
      "inputs": [
        {
          "indexed": false,
          "name": "hand",
          "type": "uint8"
        },
        {
          "indexed": false,
          "name": "hostWins",
          "type": "uint8"
        },
        {
          "indexed": false,
          "name": "guestWins",
          "type": "uint8"
        },
        {
          "indexed": false,
          "name": "handsCompleted",
          "type": "uint256"
        }
      ],
      "name": "HandOverWithDraw",
      "type": "event"
    },
    {
      "anonymous": false,
      "inputs": [
        {
          "indexed": false,
          "name": "receiver",
          "type": "address"
        },
        {
          "indexed": false,
          "name": "amountInWei",
          "type": "uint256"
        }
      ],
      "name": "PayoutSuccess",
      "type": "event"
    },
    {
      "constant": false,
      "inputs": [],
      "name": "joinGame",
      "outputs": [],
      "payable": true,
      "stateMutability": "payable",
      "type": "function"
    },
    {
      "constant": false,
      "inputs": [
        {
          "name": "number",
          "type": "uint8"
        }
      ],
      "name": "playHand",
      "outputs": [],
      "payable": false,
      "stateMutability": "nonpayable",
      "type": "function"
    },
    {
      "constant": false,
      "inputs": [],
      "name": "withdrawWin",
      "outputs": [],
      "payable": false,
      "stateMutability": "nonpayable",
      "type": "function"
    },
    {
      "constant": false,
      "inputs": [],
      "name": "emergencyCashout",
      "outputs": [],
      "payable": false,
      "stateMutability": "nonpayable",
      "type": "function"
    }
  ],
  "bytecode": "0x606060405260008060016101000a81548160ff0219169083151502179055506000600b55336001800160006101000a81548173ffffffffffffffffffffffffffffffffffffffff021916908373ffffffffffffffffffffffffffffffffffffffff16021790555033600960006101000a81548173ffffffffffffffffffffffffffffffffffffffff021916908373ffffffffffffffffffffffffffffffffffffffff1602179055506611c37937e08000341415156100bc57600080fd5b60b44201600a819055506113bd806100d56000396000f300606060405260043610610078576000357c0100000000000000000000000000000000000000000000000000000000900463ffffffff16806306f678841461007d578063216db3c2146100d2578063563c4d28146100e7578063cab896dc1461010d578063d4f77b1c14610136578063fb81550314610140575b600080fd5b341561008857600080fd5b610090610155565b604051808273ffffffffffffffffffffffffffffffffffffffff1673ffffffffffffffffffffffffffffffffffffffff16815260200191505060405180910390f35b34156100dd57600080fd5b6100e561017b565b005b34156100f257600080fd5b61010b600480803560ff169060200190919050506101af565b005b341561011857600080fd5b6101206104cc565b6040518082815260200191505060405180910390f35b61013e6104d7565b005b341561014b57600080fd5b61015361063e565b005b600960009054906101000a900473ffffffffffffffffffffffffffffffffffffffff1681565b42600a5410151561018b57600080fd5b6000809054906101000a900460ff1615156101a557600080fd5b6101ad6108d7565b565b600042600a541115156101c157600080fd5b6000809054906101000a900460ff1615156101db57600080fd5b600560ff168260ff16111515156101f157600080fd5b6001800160009054906101000a900473ffffffffffffffffffffffffffffffffffffffff1673ffffffffffffffffffffffffffffffffffffffff163373ffffffffffffffffffffffffffffffffffffffff16141561028d5760008060029054906101000a900460ff1660ff1614151561026957600080fd5b81600060026101000a81548160ff021916908360ff16021790555060019050610327565b600560010160009054906101000a900473ffffffffffffffffffffffffffffffffffffffff1673ffffffffffffffffffffffffffffffffffffffff163373ffffffffffffffffffffffffffffffffffffffff1614156103265760008060039054906101000a900460ff1660ff1614151561030657600080fd5b81600060036101000a81548160ff021916908360ff160217905550600590505b5b60001515816000016001840360ff1660058110151561034257fe5b602091828204019190069054906101000a900460ff16151514151561036657600080fd5b7f23ac1fcf3769317f9f600a0d61cb296ddf10b0806b073218ffd7971e0173b5a08160010160009054906101000a900473ffffffffffffffffffffffffffffffffffffffff16604051808273ffffffffffffffffffffffffffffffffffffffff1673ffffffffffffffffffffffffffffffffffffffff16815260200191505060405180910390a160b44201600a8190555060008060029054906101000a900460ff1660ff161415801561042b575060008060039054906101000a900460ff1660ff1614155b156104c8576001806000016001600060029054906101000a900460ff160360ff1660058110151561045857fe5b602091828204019190066101000a81548160ff021916908315150217905550600160056000016001600060039054906101000a900460ff160360ff166005811015156104a057fe5b602091828204019190066101000a81548160ff0219169083151502179055506104c7610bb0565b5b5050565b6611c37937e0800081565b600073ffffffffffffffffffffffffffffffffffffffff16600560010160009054906101000a900473ffffffffffffffffffffffffffffffffffffffff1673ffffffffffffffffffffffffffffffffffffffff1614151561053757600080fd5b60016000806101000a81548160ff0219169083151502179055506611c37937e080003414151561056657600080fd5b33600560010160006101000a81548173ffffffffffffffffffffffffffffffffffffffff021916908373ffffffffffffffffffffffffffffffffffffffff1602179055507f31e760aa525306aba638a784082a013b6a1cc0a9a1789f3f22281c0453b10b1f600560010160009054906101000a900473ffffffffffffffffffffffffffffffffffffffff16604051808273ffffffffffffffffffffffffffffffffffffffff1673ffffffffffffffffffffffffffffffffffffffff16815260200191505060405180910390a160b44201600a81905550565b60006001800160009054906101000a900473ffffffffffffffffffffffffffffffffffffffff1673ffffffffffffffffffffffffffffffffffffffff163373ffffffffffffffffffffffffffffffffffffffff1614156107b75760006001600201541115156106ac57600080fd5b600160020154905060006001600201819055506001800160009054906101000a900473ffffffffffffffffffffffffffffffffffffffff1673ffffffffffffffffffffffffffffffffffffffff166108fc829081150290604051600060405180830381858888f19350505050151561072357600080fd5b7f2a44162a2d5223e37cacacc3f626dcfee1396e0be3616534c5c7b718f786b6736001800160009054906101000a900473ffffffffffffffffffffffffffffffffffffffff1682604051808373ffffffffffffffffffffffffffffffffffffffff1673ffffffffffffffffffffffffffffffffffffffff1681526020018281526020019250505060405180910390a16108d4565b60006005600201541115156107cb57600080fd5b60056002015490506000600560020181905550600560010160009054906101000a900473ffffffffffffffffffffffffffffffffffffffff1673ffffffffffffffffffffffffffffffffffffffff166108fc829081150290604051600060405180830381858888f19350505050151561084357600080fd5b7f2a44162a2d5223e37cacacc3f626dcfee1396e0be3616534c5c7b718f786b673600560010160009054906101000a900473ffffffffffffffffffffffffffffffffffffffff1682604051808373ffffffffffffffffffffffffffffffffffffffff1673ffffffffffffffffffffffffffffffffffffffff1681526020018281526020019250505060405180910390a15b50565b6000806000806101000a81548160ff0219169083151502179055507ff3b025fd25f5f4c82d9e8b312cfc753295998f73be2717c2e57052e4e8a0c213600160030160009054906101000a900460ff16600560030160009054906101000a900460ff16600b54604051808460ff1660ff1681526020018360ff1660ff168152602001828152602001935050505060405180910390a160023073ffffffffffffffffffffffffffffffffffffffff163181151561098e57fe5b049050600015156001800160009054906101000a900473ffffffffffffffffffffffffffffffffffffffff1673ffffffffffffffffffffffffffffffffffffffff166108fc839081150290604051600060405180830381858888f1935050505015151415610a0e5780600160020160008282540192505081905550610a9e565b7f2a44162a2d5223e37cacacc3f626dcfee1396e0be3616534c5c7b718f786b6736001800160009054906101000a900473ffffffffffffffffffffffffffffffffffffffff1682604051808373ffffffffffffffffffffffffffffffffffffffff1673ffffffffffffffffffffffffffffffffffffffff1681526020018281526020019250505060405180910390a15b60001515600560010160009054906101000a900473ffffffffffffffffffffffffffffffffffffffff1673ffffffffffffffffffffffffffffffffffffffff166108fc839081150290604051600060405180830381858888f1935050505015151415610b1c5780600560020160008282540192505081905550610bad565b7f2a44162a2d5223e37cacacc3f626dcfee1396e0be3616534c5c7b718f786b673600560010160009054906101000a900473ffffffffffffffffffffffffffffffffffffffff1682604051808373ffffffffffffffffffffffffffffffffffffffff1673ffffffffffffffffffffffffffffffffffffffff1681526020018281526020019250505060405180910390a15b50565b600b6000815460010191905081905550600060039054906101000a900460ff1660ff16600060029054906101000a900460ff1660ff161115610d2c576001600301600081819054906101000a900460ff1660010191906101000a81548160ff021916908360ff1602179055507f109c935412dfa80600bdb0d7719954be79706bc37943c792bd22e3d597ed29126001800160009054906101000a900473ffffffffffffffffffffffffffffffffffffffff16600060029054906101000a900460ff16600060039054906101000a900460ff16600160030160009054906101000a900460ff16600560030160009054906101000a900460ff16600b54604051808773ffffffffffffffffffffffffffffffffffffffff1673ffffffffffffffffffffffffffffffffffffffff1681526020018660ff1660ff1681526020018560ff1660ff1681526020018460ff1660ff1681526020018360ff1660ff168152602001828152602001965050505050505060405180910390a1610f31565b600060039054906101000a900460ff1660ff16600060029054906101000a900460ff1660ff161015610e99576005600301600081819054906101000a900460ff1660010191906101000a81548160ff021916908360ff1602179055507f109c935412dfa80600bdb0d7719954be79706bc37943c792bd22e3d597ed2912600560010160009054906101000a900473ffffffffffffffffffffffffffffffffffffffff16600060029054906101000a900460ff16600060039054906101000a900460ff16600160030160009054906101000a900460ff16600560030160009054906101000a900460ff16600b54604051808773ffffffffffffffffffffffffffffffffffffffff1673ffffffffffffffffffffffffffffffffffffffff1681526020018660ff1660ff1681526020018560ff1660ff1681526020018460ff1660ff1681526020018360ff1660ff168152602001828152602001965050505050505060405180910390a1610f30565b7fc4189cbf34721e73b6a86b13c6b2855b9129eb718159795e6b8df2a485a69677600060029054906101000a900460ff16600160030160009054906101000a900460ff16600560030160009054906101000a900460ff16600b54604051808560ff1660ff1681526020018460ff1660ff1681526020018360ff1660ff16815260200182815260200194505050505060405180910390a15b5b60008060026101000a81548160ff021916908360ff16021790555060008060036101000a81548160ff021916908360ff160217905550610f6f610f71565b565b610fdf6001600001600580602002604051908101604052809291908260058015610fd5576020028201916000905b82829054906101000a900460ff16151581526020019060010190602082600001049283019260010382029150808411610f9f5790505b5050505050611130565b80156110555750611054600560000160058060200260405190810160405280929190826005801561104a576020028201916000905b82829054906101000a900460ff161515815260200190600101906020826000010492830192600103820291508084116110145790505b5050505050611130565b5b1561112e57600560030160009054906101000a900460ff1660ff16600160030160009054906101000a900460ff1660ff1611156110be576110b96001800160009054906101000a900473ffffffffffffffffffffffffffffffffffffffff16611186565b61112d565b600560030160009054906101000a900460ff1660ff16600160030160009054906101000a900460ff1660ff1610156111235761111e600560010160009054906101000a900473ffffffffffffffffffffffffffffffffffffffff16611186565b61112c565b61112b6108d7565b5b5b5b565b600080600060019150600090505b600581101561117c5760001515848260058110151561115957fe5b60200201511515141561116f576000915061117c565b808060010191505061113e565b8192505050919050565b6000806000806101000a81548160ff0219169083151502179055503073ffffffffffffffffffffffffffffffffffffffff16319050600115158273ffffffffffffffffffffffffffffffffffffffff166108fc839081150290604051600060405180830381858888f193505050501515141515611274576001800160009054906101000a900473ffffffffffffffffffffffffffffffffffffffff1673ffffffffffffffffffffffffffffffffffffffff168273ffffffffffffffffffffffffffffffffffffffff161415611264578060016002018190555061126f565b806005600201819055505b6112e0565b7f2a44162a2d5223e37cacacc3f626dcfee1396e0be3616534c5c7b718f786b6738282604051808373ffffffffffffffffffffffffffffffffffffffff1673ffffffffffffffffffffffffffffffffffffffff1681526020018281526020019250505060405180910390a15b7f78196c310a43b35c97f562f8be810c80c6506ccd47a802e887cf479d4d4c064882600160030160009054906101000a900460ff16600560030160009054906101000a900460ff16600b54604051808573ffffffffffffffffffffffffffffffffffffffff1673ffffffffffffffffffffffffffffffffffffffff1681526020018460ff1660ff1681526020018360ff1660ff16815260200182815260200194505050505060405180910390a150505600a165627a7a723058204b574d1afaa55b234352050263bb5c45f9c13d59336667a46c61d4862f545cbf0029",
  "source": "pragma solidity ^0.4.19;\n\n//TODO.. better comments\n//TODO.. better exception handling\n\ncontract Numbers {\n    uint constant public gameCost = 0.005 ether;\n    bool gameActive;\n    bool newHandInProgress = false;\n\n    uint8 constant maxNumber = 5;\n\n    // Structs\n    //public user data that can be sent as status\n    struct Player {\n        bool[5] hands;\n        address addr;\n        uint balanceToWithdraw;\n        uint8 wins;\n    }\n\n    // private user data that cant be shared.. so keeping this outside the public struct vars..\n    // as the opponent should not know your hand before making their choice for hand\n    uint8 private hostPlayer_currentHandPlayed;// 0 means not played yet, specific number means the current hand played\n    uint8 private guestPlayer_currentHandPlayed;\n\n    Player private hostPlayer;\n    Player private guestPlayer;\n    address public hostPlayerAddr;\n\n    uint constant timeToReact = 3 minutes;\n    uint gameValidUntil;\n    uint handsCompleted = 0;\n\n\n    event PlayerJoined(address player);\n    event PlayerPlayedHand(address player);\n    event GameOverWithWin(address winner, uint8 hostWins,uint8 guestWins, uint handsCompleted);\n    event GameOverWithDraw(uint8 hostWins,uint8 guestWins, uint handsCompleted);\n    event HandOverWithWin(address winner, uint8 hostHand, uint8 guestHand,uint8 hostWins,uint8 guestWins, uint handsCompleted);\n    event HandOverWithDraw(uint8 hand,uint8 hostWins,uint8 guestWins, uint handsCompleted);\n    event PayoutSuccess(address receiver, uint amountInWei);\n\n    function Numbers() public payable {\n        hostPlayer.addr = msg.sender;\n        hostPlayerAddr = msg.sender;\n        require(msg.value == gameCost);\n        gameValidUntil = now+timeToReact;\n    }\n\n    function joinGame() public payable {\n\n        //only one person can join the game..hint.. guestPlayer by default initialized to 0\n        require(guestPlayer.addr == address(0));\n        gameActive = true;\n\n        require(msg.value == gameCost);\n\n        guestPlayer.addr = msg.sender;\n         PlayerJoined(guestPlayer.addr);\n\n        gameValidUntil = now + timeToReact;\n\n    }\n\n    //TODO make this function public after testing latest changes to update 'hands' array..\n    //.. only after hand is over are working fine\n    function getPlayStatus() private view returns(bool[5],uint8,bool[5],uint8) {\n        return (hostPlayer.hands,hostPlayer.wins,guestPlayer.hands,guestPlayer.wins);\n    }\n\n    //number is not 0 index, it is actual number selected from 1..5\n    function playHand(uint8 number) public {\n\n        require(gameValidUntil > now);\n        require(gameActive);\n        require(number <= maxNumber);\n\n        Player currentPlayer;\n        if(msg.sender == hostPlayer.addr){\n            //first.. check that the user is not taking double turn\n            require(hostPlayer_currentHandPlayed == 0);//not played already for this hand\n            hostPlayer_currentHandPlayed = number;\n            currentPlayer = hostPlayer;\n          }\n        else if(msg.sender == guestPlayer.addr){\n            //first.. check that the user is not taking double turn\n            require(guestPlayer_currentHandPlayed == 0);//not played already for this hand\n            guestPlayer_currentHandPlayed = number;\n            currentPlayer = guestPlayer;\n          }\n\n        // now chk number not used already\n        require(currentPlayer.hands[number-1]==false);\n\n        PlayerPlayedHand(currentPlayer.addr);\n\n       // board[x][y] = msg.sender;\n       // movesCounter++;\n        gameValidUntil = now + timeToReact;\n\n        // now..check if both players have played\n       if((hostPlayer_currentHandPlayed!=0) && (guestPlayer_currentHandPlayed!=0)) {\n            //set hands array now since hand is over\n            hostPlayer.hands[hostPlayer_currentHandPlayed-1] = true;\n            guestPlayer.hands[guestPlayer_currentHandPlayed-1] = true;\n            determineHandWinner();\n      }\n    }\n\n    function determineHandWinner() private{\n\n        //increement hands movesCounter\n        ++handsCompleted;\n\n        if(hostPlayer_currentHandPlayed > guestPlayer_currentHandPlayed) {\n            ++hostPlayer.wins;\n            HandOverWithWin(hostPlayer.addr, hostPlayer_currentHandPlayed, guestPlayer_currentHandPlayed,\n              hostPlayer.wins, guestPlayer.wins, handsCompleted);\n        }\n        else if(hostPlayer_currentHandPlayed < guestPlayer_currentHandPlayed){\n            ++guestPlayer.wins;\n            HandOverWithWin(guestPlayer.addr, hostPlayer_currentHandPlayed, guestPlayer_currentHandPlayed,\n               hostPlayer.wins, guestPlayer.wins, handsCompleted);\n        }\n        else{\n             HandOverWithDraw(hostPlayer_currentHandPlayed, hostPlayer.wins, guestPlayer.wins, handsCompleted);//draw\n        }\n\n        //reset current hand\n        hostPlayer_currentHandPlayed = 0;\n        guestPlayer_currentHandPlayed = 0;\n\n        //now check if the game is over overall\n        determineOverallWinner();\n    }\n\n    function determineOverallWinner() private{\n        //if both players took all 5 chances\n        if(allChancesTaken(hostPlayer.hands) && allChancesTaken(guestPlayer.hands))\n        {\n            if(hostPlayer.wins > guestPlayer.wins)\n                setWinner(hostPlayer.addr);\n            else if(hostPlayer.wins < guestPlayer.wins)\n                setWinner(guestPlayer.addr);\n            else //draw\n                setDraw();\n        }\n\n    }\n\n    function allChancesTaken(bool[5] hand) private pure returns(bool){\n        bool taken = true;\n         for(uint i = 0; i < 5 ; i++) {\n             if(hand[i]==false){\n                taken=false;\n                break;\n             }\n         }\n         return taken;\n    }\n\n    function setWinner(address player) private {\n        gameActive = false;\n        uint balanceToPayOut = this.balance;\n\n        //transfer money to the winner\n        if(player.send(balanceToPayOut) != true) {\n            if(player == hostPlayer.addr) {\n                hostPlayer.balanceToWithdraw = balanceToPayOut;\n            } else {\n                guestPlayer.balanceToWithdraw = balanceToPayOut;\n            }\n        } else {\n            PayoutSuccess(player, balanceToPayOut);\n        }\n\n        //emit an event\n        GameOverWithWin(player, hostPlayer.wins, guestPlayer.wins, handsCompleted);\n\n    }\n\n    function withdrawWin() public {\n        uint balanceToTransfer;\n        if(msg.sender == hostPlayer.addr) {\n            require(hostPlayer.balanceToWithdraw > 0);\n             balanceToTransfer = hostPlayer.balanceToWithdraw;\n            hostPlayer.balanceToWithdraw = 0;\n            hostPlayer.addr.transfer(balanceToTransfer);\n\n            PayoutSuccess(hostPlayer.addr, balanceToTransfer);\n        } else {\n\n            require(guestPlayer.balanceToWithdraw > 0);\n             balanceToTransfer = guestPlayer.balanceToWithdraw;\n            guestPlayer.balanceToWithdraw = 0;\n            guestPlayer.addr.transfer(balanceToTransfer);\n             PayoutSuccess(guestPlayer.addr, balanceToTransfer);\n        }\n    }\n\n    function setDraw() private {\n        gameActive = false;\n         GameOverWithDraw(hostPlayer.wins,guestPlayer.wins,handsCompleted);\n\n        uint balanceToPayOut = this.balance/2;\n\n        if(hostPlayer.addr.send(balanceToPayOut) == false) {\n            hostPlayer.balanceToWithdraw += balanceToPayOut;\n        } else {\n             PayoutSuccess(hostPlayer.addr, balanceToPayOut);\n        }\n        if(guestPlayer.addr.send(balanceToPayOut) == false) {\n            guestPlayer.balanceToWithdraw += balanceToPayOut;\n        } else {\n             PayoutSuccess(guestPlayer.addr, balanceToPayOut);\n        }\n\n    }\n\n    function emergencyCashout() public {\n        require(gameValidUntil < now);\n        require(gameActive);\n        setDraw();\n    }\n\n\n\n}\n",
  "sourcePath": "/Users/avneet/work/truffle/contracts/Numbers.sol",
  "compiler": {
    "name": "solc",
    "version": "0.4.19+commit.c4cbbb05.Emscripten.clang"
  },
  "schemaVersion": "2.0.0",
  "updatedAt": "2018-03-26T04:09:17.089Z"
}